:100000000C942A000C9447000C9447000C94470071
:100010000C9447000C9447000C9447000C94470044
:100020000C9447000C9447000C9447000C94470034
:100030000C9447000C9447000C9447000C94470024
:100040000C94F0010C9447000C9447000C9447006A
:100050000C94470011241FBECFE5D8E0DEBFCDBF12
:1000600010E0A0E6B0E0EEE0F5E002C005900D92F1
:10007000A237B107D9F720E0A2E7B0E001C01D9296
:10008000AB37B207E1F70E9457010C9485020C943C
:10009000000041E064E089E390E00E94410283EDCA
:1000A00090E30197F1F700C0000040E064E089E3CD
:1000B00090E00E944102089542E064E089E390E00C
:1000C0000E940B0242E062E089E390E00E940B0292
:1000D00042E061E089E390E00E940B0241E060E1D0
:1000E00089E390E00E94FF0141E060E289E390E053
:1000F0000E94FF0141E060E489E390E00E94FF017B
:1001000041E060E889E390E00E94FF010895CF9309
:10011000C82F6BB36F70807F682B89E390E00E94DB
:100120004D0240E062E089E390E00E94410240E03D
:1001300061E089E390E00E9441020E9449006BB3B4
:1001400020E1C29FC00111246F70682B89E390E009
:100150000E944D0240E062E089E390E00E9441028B
:1001600040E061E089E390E00E9441020E94490082
:10017000CF91089581E00E9487000895CF93DF9387
:10018000C82FD62F813031F4603120F480E8860FFB
:100190000E948700C23031F4D03120F480EC8D0F02
:1001A0000E948700DF91CF91089587E893E101973E
:1001B000F1F700C000000E945C0085EA9EE0019714
:1001C000F1F700C000000E94BA0082E00E948700A0
:1001D00088E20E94870086E00E94870080E80E94F3
:1001E00087008FE00E9487000895CF93C82F41E0D9
:1001F00062E089E390E00E94410240E061E089E32F
:1002000090E00E9441026BB36F708C2F807F682B4F
:1002100089E390E00E944D020E9449006BB320E107
:10022000C29FC00111246F70682B89E390E00E9487
:100230004D0241E062E089E390E00E94410240E02B
:1002400061E089E390E00E9441020E944900CF9161
:1002500008950F931F93CF93DF938C01C0E0D0E0FC
:1002600018C021960F5F1F4F0E94F500C031D105C5
:1002700029F460E082E00E94BE000BC0C032D105CC
:1002800041F40E94BA0060E081E00E94BE00C0E03C
:10029000D0E0F80180818111E4CFDF91CF911F91EF
:1002A0000F91089596958795969587950895CF9384
:1002B000DF93CDB7DEB763970FB6F894DEBF0FBEFE
:1002C000CDBFCE010B9629E0FC0111922A95E9F7EA
:1002D00020E62B8726E02C8720EC30E03E872D8718
:1002E0002FE13FEF388B2F8728E0298B0E949B015D
:1002F0000E94D50060E081E00E94BE0080E690E0B0
:100300000E94290183E00E94DA010E9452014AE022
:10031000BE016F5F7F4F90E00E94500260E082E07C
:100320000E94BE00CE0101960E9429018EE690E057
:100330000E942901E7CFCF93DF93EC0189E0FE0112
:10034000A2E7B0E001900D928A95E1F798819F397C
:1003500069F0913264F080B78F7180BF88818036F8
:1003600031F020B78C81822B80BF01C090E087B133
:1003700087B92A813B812F3F8FEF380719F087B16A
:10038000282B27B9987F8981883F09F0982B8E8187
:10039000873F29F08FB780688FBF986004C08FB700
:1003A0008F778FBF977F96B986B1806886B9DF91C6
:1003B000CF91089597B1892B87B9809172008032CF
:1003C00019F086B1886086B986B1806486B9349B9D
:1003D000FECF24B185B190E0982F8827822B089515
:1003E0001F920F920FB60F9211248F9386B1877FC1
:1003F00086B98F910F900FBE0F901F901895FC013A
:10040000413021F48181682B618308959181609549
:100410006923618308950F931F93CF93DF938C011A
:10042000D62FC42F8EEF840F823088F441E0C801AC
:100430000E94FF01C33029F4F8018281D82BD283B6
:100440001BC0F8018281D095D823D28315C04230D9
:1004500098F440E0C8010E94FF01C11106C0F801F4
:100460008281D095D823D28307C0F8018281D82B0E
:10047000D28380B78B7F80BFDF91CF911F910F9187
:100480000895FC01413021F48281682B6283089534
:1004900092816095692362830895FC0162830895C7
:1004A000BB274A3031F4992322F4BDE2909581951F
:1004B0009F4F0C945C02BB27FB015527AA27880F8E
:1004C000991FAA1FA41710F0A41B83955051B9F7C8
:1004D000A05DAA3308F0A95DA193009779F7B11147
:1004E000B1931192CB010C947502DC01FC01672FD2
:1004F00071917723E1F7329704C07C916D937083FB
:0E0500006291AE17BF07C8F30895F894FFCFBD
:10050E0054656D7065726174757265203D0020438F
:02051E000000DB
:00000001FF
