:100000000C942A000C9475000C9475000C947500E7
:100010000C9475000C9475000C9475000C9475008C
:100020000C9475000C9475000C9475000C9475007C
:100030000C9475000C9475000C9475000C9475006C
:100040000C9475000C9475000C9475000C9475005C
:100050000C94750011241FBECFE5D8E0DEBFCDBFE4
:0C0060000E9436000C943400F894FFCF8E
:10006C000E946B006FEF89E00E945E006FE08AE0F7
:10007C000E945E006FE78BE00E945E0061E08CE006
:10008C000E945E0060E0C1E010C0D1E0D60F8C2F62
:10009C000E945E002FE38DE093E021508040904061
:1000AC00E1F700C00000CF5F6D2FC93070F3EBCFCC
:1000BC0098B39F7E98BB8FB9779BFECF6FB9779B18
:0A00CC00FECF88B3806188BB089561
:1000D60087B3806B87BB87B38F7B87BB8DB1816509
:0400E6008DB9089533
:0400EA000C94000072
:00000001FF
