:100000000C942A000C9447000C9447000C94470071
:100010000C9447000C9447000C9447000C94470044
:100020000C9447000C9447000C9447000C94470034
:100030000C9447000C9447000C9447000C94470024
:100040000C9447000C9447000C9447000C94470014
:100050000C94470011241FBECFE5D8E0DEBFCDBF12
:1000600010E0A0E6B0E0E6EAF4E002C005900D92F0
:10007000AE36B107D9F720E0AEE6B0E001C01D9280
:10008000AE36B207E1F70E9471010C9451020C9454
:10009000000041E068E086E390E00E94E00183ED2B
:1000A00090E30197F1F700C0000040E068E086E3CC
:1000B00090E00E94E001089542E068E086E390E06D
:1000C0000E94AA0142E062E086E390E00E94AA0159
:1000D00042E064E086E390E00E94AA0141E060E132
:1000E00089E390E00E949E0141E060E289E390E0B4
:1000F0000E949E0141E060E489E390E00E949E013D
:1001000041E060E889E390E00E949E0108958AB38F
:100110001ABA41E064E086E390E00E94E00140E02A
:1001200062E086E390E00E94E0010E9449008AB309
:10013000806F8ABB40E064E086E390E00E94E001CB
:100140000895CF93C82F0E9487000E9487006BB349
:100150006F708C2F807F682B89E390E00E94EC0108
:1001600040E062E086E390E00E94E00140E064E06D
:1001700086E390E00E94E0010E9449006BB320E119
:10018000C29FC00111246F70682B89E390E00E9428
:10019000EC0140E062E086E390E00E94E00140E094
:1001A00064E086E390E00E94E0010E944900CF9164
:1001B000089581E00E94A1000895CF93DF93C82F96
:1001C000D62F813031F4603120F480E8860F0E9410
:1001D000A100C23031F4D03120F480EC8D0F0E94A8
:1001E000A100DF91CF91089587E893E10197F1F79E
:1001F00000C000000E945C0085EA9EE00197F1F7D4
:1002000000C000000E94D90082E00E94A10088E2A4
:100210000E94A10086E00E94A10080E80E94A10047
:100220008FE00E94A1000895CF93C82F41E062E0C3
:1002300086E390E00E94E00140E064E086E390E025
:100240000E94E0016BB36F708C2F807F682B89E375
:1002500090E00E94EC010E9449006BB320E1C29F34
:10026000C00111246F70682B89E390E00E94EC01BB
:1002700041E062E086E390E00E94E00140E064E05B
:1002800086E390E00E94E0010E944900CF9108952A
:100290000F931F93CF93DF938C01C0E0D0E018C081
:1002A00021960F5F1F4F0E941401C031D10529F420
:1002B00060E082E00E94DD000BC0C032D10541F455
:1002C0000E94D90060E081E00E94DD00C0E0D0E043
:1002D000F80180818111E4CFDF91CF911F910F91BF
:1002E00008950E94F40083ED90E30197F1F700C0B8
:1002F00000000E94EF0180E690E00E94480181E446
:100300000E94160288E40E9416028DE40E941602E2
:1003100085E40E94160284E40E94160280E20E9494
:10032000160288E690E00E941E020E942B02EC0159
:100330000E94D900CE010E944801F7CFFC01413054
:1003400021F48181682B61830895918160956923EF
:10035000618308950F931F93CF93DF938C01D62F62
:10036000C42F8EEF840F823088F441E0C8010E94D0
:100370009E01C33029F4F8018281D82BD2831BC09F
:10038000F8018281D095D823D28315C0423098F4E9
:1003900040E0C8010E949E01C11106C0F80182819F
:1003A000D095D823D28307C0F8018281D82BD2837D
:1003B00080B78B7F80BFDF91CF911F910F91089500
:1003C000FC01413021F48281682B6283089592817F
:1003D0006095692362830895FC016283089585B363
:1003E00085BB89B1836389B98AB188608AB98AB1CA
:1003F00080618AB985B3816085BB85B3826085BB26
:100400008AB18B7F8AB985B38F7B85BB8BB18D7F9A
:100410008BB985B38F7E85BB85B38F7D85BB85B357
:10042000877F85BB85B3806885BB08955D9BFECFC4
:100430008CB908955F9BFECF8CB10895CF93DF9365
:10044000EC0103C00E941602219688818111FACF27
:10045000DF91CF9108951F93CF93DF93CDB7DEB790
:10046000E2970FB6F894DEBF0FBECDBF80E010E07C
:100470000AC00E941A02E1E0F0E0EC0FFD1FE10F5C
:10048000F11D80831F5F8132A1F7CE010196E296B4
:100490000FB6F894DEBF0FBECDBFDF91CF911F9195
:0604A0000895F894FFCF5F
:0E04A60077656C636F6D650057686F3F0000EF
:00000001FF
