:100000000C942A000C943F000C943F000C943F0089
:100010000C943F000C943F000C943F000C943F0064
:100020000C943F000C943F000C943F000C943F0054
:100030000C943F000C943F000C943F000C943F0044
:100040000C943F000C943F000C943F000C943F0034
:100050000C943F0011241FBECFE5D8E0DEBFCDBF1A
:1000600010E0A0E6B0E0E0EAF1E002C005900D92F9
:10007000A236B107D9F70E9486000C94CE000C94EA
:1000800000009B01AC0160E472E48FE090E00E940C
:10009000AC00CA01B901605171098109910920912F
:1000A000600030E0220F331F032E000C440B550B71
:1000B0000E94AC0020B980916000843059F018F49F
:1000C000813031F00895803141F0803449F0089555
:1000D00011B8089581E081B9089582E081B9089549
:1000E00083E081B9089584EA86BF06B607FEFDCF96
:1000F00081B18830E9F7089583B984E886BF06B6F0
:1001000007FEFDCF089584E986BF089568E470E096
:1001100080E090E00E944100C0E0D0E02FE78AE15B
:1001200096E0215080409040E1F700C000000E941E
:10013000730080ED0E947C0081B18831E9F78E0167
:100140000F5F1F4F8C2F0E947C0081B18832E9F72E
:100150000E948300E801E2CFA1E21A2EAA1BBB1B7A
:10016000FD010DC0AA1FBB1FEE1FFF1FA217B30783
:10017000E407F50720F0A21BB30BE40BF50B661F99
:10018000771F881F991F1A9469F76095709580955D
:1001900090959B01AC01BD01CF010895F894FFCF6C
:0201A00001005C
:00000001FF
