:100000000C9434000C9451000C9451000C94510049
:100010000C9451000C9451000C9451000C9451001C
:100020000C9451000C9451000C9451000C9451000C
:100030000C9451000C9451000C9451000C945100FC
:100040000C9451000C9451000C9451000C945100EC
:100050000C945100B602B802A502A702A902AB0295
:10006000AD02AF02B102B30211241FBECFE5D8E04A
:10007000DEBFCDBF10E0A0E6B0E0E6E5F8E002C0EC
:1000800005900D92AE37B107D9F720E0AEE7B0E0AA
:1000900001C01D92AE37B207E1F70E94EF020C9447
:1000A00029040C94000040E061E083E390E00E94AA
:1000B0007E0340E062E083E390E00E947E0340E044
:1000C00064E083E390E00E947E0340E068E083E325
:1000D00090E00E947E0341E060E183E390E00E94B3
:1000E0007E0341E060E283E390E00E947E0341E012
:1000F00060E483E390E00E947E0341E060E883E3F4
:1001000090E00E947E036FEF83E390E00E94D403AF
:1001100008950F931F93CF93DF9300E010E085C005
:10012000C0E6D0E0688141E083E390E00E94C8032C
:100130006A8141E083E390E00E94C8036C8141E062
:1001400083E390E00E94C8036E8141E083E390E086
:100150000E94C803F801EE0FFF1FE05AFF4F6081B5
:1001600040E083E390E00E94C803C0E0D0E057C0C5
:10017000FE01EE0FFF1FE859FF4F608183E390E01F
:100180000E94C00381114AC0FE01EE0FFF1FE85913
:10019000FF4F608183E390E00E94C0038823A1F3B6
:1001A00001301105C1F024F40115110541F036C0EC
:1001B00002301105E1F00330110529F12FC020971D
:1001C000D1F1C130D105C9F1C230D105C1F1C3307F
:1001D000D10521F536C02097B1F1C130D105A9F183
:1001E000C230D105A1F1C330D105C1F432C020978E
:1001F00091F1C130D10589F1C230D10581F1C3300F
:10020000D10561F42EC0209771F1C130D10569F19B
:10021000C230D10561F1C330D10559F12196C43006
:10022000D1050CF4A5CF0F5F1F4F043011050CF45E
:1002300077CF81E41FC087E31DC084E31BC081E347
:1002400019C08FE317C088E315C085E313C082E3AC
:1002500011C080E30FC089E30DC086E30BC083E3C8
:1002600009C08DE307C08FE205C08AE203C08DE2BA
:1002700001C08BE2DF91CF911F910F91089541E072
:1002800068E086E390E00E94C80383ED90E3019765
:10029000F1F700C0000040E068E086E390E00E94D3
:1002A000C803089542E068E086E390E00E948A0374
:1002B00042E062E086E390E00E948A0342E064E06C
:1002C00086E390E00E948A0341E061E089E390E0E8
:1002D0000E947E0341E062E089E390E00E947E0399
:1002E00041E064E089E390E00E947E0341E068E041
:1002F00089E390E00E947E0341E060E189E390E0C1
:100300000E947E0341E060E289E390E00E947E0368
:1003100041E060E489E390E00E947E0341E060E810
:1003200089E390E00E947E0308958AB31ABA41E0FF
:1003300064E086E390E00E94C80340E062E086E368
:1003400090E00E94C8030E943F018AB38FEF8ABBEE
:1003500040E064E086E390E00E94C8030895CF93F4
:10036000C82F0E9495016C2F89E390E00E94D4036E
:1003700040E064E086E390E00E94C80340E062E071
:1003800086E390E00E94C80389EF90E00197F1F7BF
:1003900000C000000E943F01CF91089581E00E94BB
:1003A000AF010895CF93DF93C82FD62F813031F45A
:1003B000603120F480E8860F0E94AF01C23031F432
:1003C000D03120F480EC8D0F0E94AF01DF91CF91EE
:1003D000089587E893E10197F1F700C000000E94BB
:1003E000520185EA9EE00197F1F700C000000E94EB
:1003F000CE0188E30E94AF0186E00E94AF0180E851
:100400000E94AF018FE00E94AF010895CF93C82FE3
:100410000E9495016C2F89E390E00E94D40340E094
:1004200064E086E390E00E94C80341E062E086E376
:1004300090E00E94C80389EF90E00197F1F700C0B7
:1004400000000E943F01CF9108950F931F93CF9317
:10045000DF938C01C0E0D0E018C021960F5F1F4FE2
:100460000E940602C031D10529F460E082E00E94BA
:10047000D2010BC0C032D10541F40E94CE0160E030
:1004800081E00E94D201C0E0D0E0F80180818111BA
:10049000E4CFDF91CF911F910F9108950F931F9398
:1004A000CF93DF93CDB7DEB7A8970FB6F894DEBF32
:1004B0000FBECDBF00E010E01EC02DEC829F212DAD
:1004C0001124269526952695322F330F932F990FB9
:1004D000990F930F891B90E0C096F801EE0FFF1F54
:1004E00041E050E04C0F5D1FE40FF51F91838083C6
:1004F000822F0F5F1F4F8111E0CF015011090EC0F5
:10050000F801EE0FFF1F81E090E08C0F9D1FE80FB8
:10051000F91F80810E94060201501109112384F7FE
:10052000A8960FB6F894DEBF0FBECDBFDF91CF9176
:100530001F910F91089590E0FC01F097EA30F105CA
:10054000A0F4E65DFF4F0C94090482E0089583E077
:10055000089584E0089585E0089586E0089587E091
:10056000089588E0089589E00895089580E0089549
:1005700081E00895CF92DF92EF92FF920F9369018D
:100580007A010B3249F018F40A3281F01BC00D32A7
:1005900041F00F3291F016C0620F731F841F951F38
:1005A00012C0621B730B840B950B0DC09B01AC0139
:1005B000C701B6010E94D70306C00E94E703CA0123
:1005C000B90101C003C0462F372F282F642F732F86
:1005D000822F0F91FF90EF90DF90CF900895CF93EF
:1005E000DF93CDB7DEB728970FB6F894DEBF0FBE06
:1005F000CDBF1A8219821C821B821E821D821F821D
:100600000E94E90183ED90E30197F1F700C000003B
:100610000E94CE0180E790E00E9425020E945300D4
:1006200087E893E10197F1F700C000000E94CE0136
:100630000E948900182F8F3319F08134C9F307C045
:100640000E94CE011A8219821C821B82F1CF813056
:1006500051F48F81811107C0812F0E94060281E031
:100660008F8318872FC0812F0E940602812F0E943E
:100670009B029F81911112C029813A81A901440FE7
:10068000551F220F331F220F331F220F331F240F3A
:10069000351F280F311D3A83298314C09F81913063
:1006A00089F42B813C81A901440F551F220F331F70
:1006B000220F331F220F331F240F351F280F311D28
:1006C0003C832B831D3309F0B3CF1F8208852B8118
:1006D0003C8169817A8140E050E080E090E00E94B6
:1006E000BA027E836D8382E00E94AF0180EC0E949B
:1006F000AF018D819E810E944E029ACFFC01413054
:1007000021F48181682B618308959181609569232B
:10071000618308950F931F93CF93DF938C01D62F9E
:10072000C42F8EEF840F823088F441E0C8010E940C
:100730007E03C33029F4F8018281D82BD2831BC0F9
:10074000F8018281D095D823D28315C0423098F425
:1007500040E0C8010E947E03C11106C0F8018281F9
:10076000D095D823D28307C0F8018281D82BD283B9
:1007700080B78B7F80BFDF91CF911F910F9108953C
:10078000FC018081682311F081E0089580E00895E4
:10079000FC01413021F48281682B628308959281AB
:1007A0006095692362830895FC0162830895DB01EB
:1007B0008F939F930E940F04BF91AF91A29F800DD2
:1007C000911DA39F900DB29F900D11240895A1E259
:1007D0001A2EAA1BBB1BFD010DC0AA1FBB1FEE1FBB
:1007E000FF1FA217B307E407F50720F0A21BB30B06
:1007F000E40BF50B661F771F881F991F1A9469F782
:1008000060957095809590959B01AC01BD01CF01DD
:100810000895EE0FFF1F0590F491E02D09940E94BA
:100820001A04A59F900DB49F900DA49F800D911D5B
:1008300011240895A29FB001B39FC001A39F700D22
:10084000811D1124911DB29F700D811D1124911DD8
:060850000895F894FFCFAB
:100856001000200040008000010002000400080093
:0E08660043616C6320697320726561647900E0
:00000001FF
