:100000000C942A000C9434000C9434000C943400AA
:100010000C9434000C9434000C9434000C94340090
:100020000C9434000C9434000C9434000C94340080
:100030000C9434000C9434000C9434000C94340070
:100040000C9434000C9434000C9434000C94340060
:100050000C94340011241FBECFE5D8E0DEBFCDBF25
:100060000E9445000C9461000C94000087B3806BE3
:1000700087BB8DB181658DB908958FB9779BFECF10
:100080000895779BFECF8FB108950E9436008FEFC1
:100090008ABBC0E088B3807E88BB8C2F0E943D0065
:1000A00088B3806188BB0E9441008BBB2FEF89E63B
:1000B00098E1215080409040E1F700C00000CF5F00
:0600C000E9CFF894FFCF28
:00000001FF
