S0200000536563355F5350495F41544D45474133325F4472697665722E737265632B
S11300000C942A000C94D3030C9447000C944700DE
S11300100C9447000C9447000C9447000C94470040
S11300200C9447000C9447000C9447000C94470030
S11300300C940F030C94D9030C9447000C94AC0358
S11300400C9447000C9447000C9447000C94470010
S11300500C94470011241FBECFE5D8E0DEBFCDBF0E
S113006010E0A0E6B0E0E4E0F8E002C005900D92F4
S1130070A836B107D9F720E0A8E6B0E001C01D9288
S1130080AD36B207E1F70E94DE010C9400040C9433
S1130090000041E068E086E390E00E948C0283ED7A
S11300A090E30197F1F700C0000040E068E086E3C8
S11300B090E00E948C02089542E068E086E390E0BC
S11300C00E94560242E062E086E390E00E945602FB
S11300D042E064E086E390E00E94560241E060E181
S11300E089E390E00E944A0241E060E289E390E003
S11300F00E944A0241E060E489E390E00E944A02DF
S113010041E060E889E390E00E944A020895CF93B9
S1130110C82F6BB36F70807F682B89E390E00E94D7
S1130120980240E062E086E390E00E948C0240E0A6
S113013064E086E390E00E948C020E9449006BB365
S113014020E1C29FC00111246F70682B89E390E005
S11301500E94980240E062E086E390E00E948C02F4
S113016040E064E086E390E00E948C020E94490033
S1130170CF91089581E00E9487000895CF93DF9383
S1130180C82FD62F813031F4603120F480E8860FF7
S11301900E948700C23031F4D03120F480EC8D0FFE
S11301A00E948700DF91CF91089587E893E101973A
S11301B0F1F700C000000E945C0085EA9EE0019710
S11301C0F1F700C000000E94BA0082E00E9487009C
S11301D088E20E94870086E00E94870080E80E94EF
S11301E087008FE00E9487000895CF93C82F41E0D5
S11301F062E086E390E00E948C0240E064E086E3E3
S113020090E00E948C026BB36F708C2F807F682B00
S113021089E390E00E9498020E9449006BB320E1B8
S1130220C29FC00111246F70682B89E390E00E9483
S1130230980241E062E086E390E00E948C0240E094
S113024064E086E390E00E948C020E944900CF9112
S113025008950F931F93CF93DF938C01C0E0D0E0F8
S113026018C021960F5F1F4F0E94F500C031D105C1
S113027029F460E082E00E94BE000BC0C032D105C8
S113028041F40E94BA0060E081E00E94BE00C0E038
S1130290D0E0F80180818111E4CFDF91CF911F91EB
S11302A00F9108950F931F93CF93DF93CDB7DEB7CC
S11302B0A8970FB6F894DEBF0FBECDBF00E010E0E4
S11302C01EC02DEC829F212D11242695269526955E
S11302D0322F330F932F990F990F930F891B90E0AF
S11302E0C096F801EE0FFF1F41E050E04C0F5D1F78
S11302F0E40FF51F91838083822F0F5F1F4F8111BD
S1130300E0CF015011090EC0F801EE0FFF1F81E08C
S113031090E08C0F9D1FE80FF91F80810E94F5006B
S113032001501109112384F7A8960FB6F894DEBF83
S11303300FBECDBFDF91CF911F910F91089561E062
S113034089E290E00E94990380936C0040E060E1B0
S113035086E390E00E948C028FE19EE40197F1F71E
S113036000C0000040E06CE670E08DE290E00E9486
S1130370CA0241E060E186E390E00E948C0260E002
S113038082E00E94BE0080916C000E94F5000895F6
S1130390E0E0F0E083E3828380E886838FE991E004
S11303A090878783148286E083831582108211826A
S11303B0BF0189E290E00E943903089581E48093AB
S11303C06C000E94D5000E94C801E0E0F0E01682B3
S11303D014821382118215821186108680E1808333
S11303E01782BF018DE290E00E949B028DE290E0B3
S11303F00E94D40260E080E00E94BE0080E690E0AB
S11304000E94290141E060E186E390E00E948C02B1
S1130410C0E001C0C0E040E060E186E390E00E94FB
S11304208C028FE19EE40197F1F700C0000040E0E8
S11304306CE670E08DE290E00E94CA0241E060E167
S113044086E390E00E948C026CE081E00E94BE0092
S113045080916C000E94F50080916C008F5F809306
S11304606C008B3519F481E480936C0069E081E0C1
S11304700E94BE008C2F0E9452019FEF29E688E162
S1130480915020408040E1F700C00000CF5FCA30A7
S113049011F6C0CFFC01413021F48181682B6183C6
S11304A00895918160956923618308950F931F9343
S11304B0CF93DF938C01D62FC42F8EEF840F82301D
S11304C088F441E0C8010E944A02C33029F4F801CB
S11304D08281D82BD2831BC0F8018281D095D82386
S11304E0D28315C0423098F440E0C8010E944A0209
S11304F0C11106C0F8018281D095D823D28307C0E8
S1130500F8018281D82BD28380B78B7F80BFDF91A3
S1130510CF911F910F910895FC01413021F4828104
S1130520682B62830895928160956923628308959C
S1130530FC0162830895DC01FB0191819064838155
S1130540982B2481922B8581813051F48681982BBC
S113055011968C911197816011968C93119708C014
S11305608681982B11968C91119711968C931197E3
S11305702081922B8781882331F08FB780688FBFC9
S11305808781982B01C0982B9C93F0936900E0938A
S113059068000895FC01DB018C918283411103C042
S11305A091819923ECF70895E0916800F091690036
S11305B080818031C9F442E060E286E390E00E94E9
S11305C0560240E060E486E390E00E94560242E076
S11305D060E886E390E00E94560242E060E186E330
S11305E090E00E9456020895811118C040E060E234
S11305F086E390E00E94560242E060E486E390E0E5
S11306000E94560240E060E886E390E00E945602B1
S113061040E060E186E390E00E94560208951F9254
S11306200F920FB60F9211242F933F934F935F9322
S11306306F937F938F939F93AF93BF93EF93FF93A6
S1130640E0916800F09169000084F185E02D09953E
S1130650FF91EF91BF91AF919F918F917F916F9196
S11306605F914F913F912F910F900FBE0F901F906C
S11306701895FC01DB0180818083908112968C9116
S11306801297892B80838AB188608AB98AB1806184
S11306908AB9928111968C911197892B82838485D2
S11306A08068848713968C911397882331F0823065
S11306B021F0843011F0863039F49485892B8487B5
S11306C081818B7F818306C09485892B8487818176
S11306D08B7F8183948514968C911497892B8487BE
S11306E0948515968C911597892B848792818C918A
S11306F0892B828316968C91169781110BC0918158
S1130700892B818310926B0010926A008FB78F77C8
S11307108FBF08959181892B818317968D919C9128
S1130720189790936B0080936A008FB780688FBF8F
S11307300895FC01662311F05F9BFECF9381892FFE
S113074090E0218122FF07C0218126952170522F3C
S113075040E0842B952B08951F920F920FB60F92B1
S113076011242F933F934F935F936F937F938F93B2
S11307709F93AF93BF93EF93FF93E0916A00F0913F
S11307806B000995FF91EF91BF91AF919F918F916C
S11307907F916F915F914F913F912F910F900FBE79
S11307A00F901F901895E0916A00F0916B000995E5
S11307B008951F920F920FB60F9211242F933F9317
S11307C04F935F936F937F938F939F93AF93BF9355
S11307D0EF93FF93E0916A00F0916B000995FF910C
S11307E0EF91BF91AF919F918F917F916F915F91A5
S11307F04F913F912F910F900FBE0F901F9018951E
S1070800F894FFCF96
S10B08044D415354455200001C
S9030000FC
