S0180000536563345F414D49544B49545F4C43442E7372656319
S11300000C942A000C9447000C9447000C9447006D
S11300100C9447000C9447000C9447000C94470040
S11300200C9447000C9447000C9447000C94470030
S11300300C9447000C9447000C9447000C94470020
S11300400C9447000C9447000C9447000C94470010
S11300500C94470011241FBECFE5D8E0DEBFCDBF0E
S113006010E0A0E6B0E0E2EAF3E002C005900D92F1
S1130070A037B107D9F720E0A0E7B0E001C01D9296
S1130080A037B207E1F70E9471010C94CF010C94E0
S1130090000041E068E086E390E00E94C00183ED47
S11300A090E30197F1F700C0000040E068E086E3C8
S11300B090E00E94C001089542E068E086E390E089
S11300C00E948A0142E062E086E390E00E948A0195
S11300D042E064E086E390E00E948A0141E060E14E
S11300E089E390E00E947E0141E060E289E390E0D0
S11300F00E947E0141E060E489E390E00E947E0179
S113010041E060E889E390E00E947E0108958AB3AB
S11301101ABA41E064E086E390E00E94C00140E046
S113012062E086E390E00E94C0010E9449008AB325
S1130130806F8ABB40E064E086E390E00E94C001E7
S11301400895CF93C82F0E9487000E9487006BB345
S11301506F708C2F807F682B89E390E00E94CC0124
S113016040E062E086E390E00E94C00140E064E089
S113017086E390E00E94C0010E9449006BB320E135
S1130180C29FC00111246F70682B89E390E00E9424
S1130190CC0140E062E086E390E00E94C00140E0D0
S11301A064E086E390E00E94C0010E944900CF9180
S11301B0089581E00E94A1000895CF93DF93C82F92
S11301C0D62F813031F4603120F480E8860F0E940C
S11301D0A100C23031F4D03120F480EC8D0F0E94A4
S11301E0A100DF91CF91089587E893E10197F1F79A
S11301F000C000000E945C0085EA9EE00197F1F7D0
S113020000C000000E94D90082E00E94A10088E2A0
S11302100E94A10086E00E94A10080E80E94A10043
S11302208FE00E94A1000895CF93C82F41E062E0BF
S113023086E390E00E94C00140E064E086E390E041
S11302400E94C0016BB36F708C2F807F682B89E391
S113025090E00E94CC010E9449006BB320E1C29F50
S1130260C00111246F70682B89E390E00E94CC01D7
S113027041E062E086E390E00E94C00140E064E077
S113028086E390E00E94C0010E944900CF91089546
S11302900F931F93CF93DF938C01C0E0D0E018C07D
S11302A021960F5F1F4F0E941401C031D10529F41C
S11302B060E082E00E94DD000BC0C032D10541F451
S11302C00E94D90060E081E00E94DD00C0E0D0E03F
S11302D0F80180818111E4CFDF91CF911F910F91BB
S11302E008950E94F40083ED90E30197F1F700C0B4
S11302F0000080E690E00E944801FFCFFC014130FD
S113030021F48181682B618308959181609569232B
S1130310618308950F931F93CF93DF938C01D62F9E
S1130320C42F8EEF840F823088F441E0C8010E940C
S11303307E01C33029F4F8018281D82BD2831BC0FB
S1130340F8018281D095D823D28315C0423098F425
S113035040E0C8010E947E01C11106C0F8018281FB
S1130360D095D823D28307C0F8018281D82BD283B9
S113037080B78B7F80BFDF91CF911F910F9108953C
S1130380FC01413021F48281682B628308959281BB
S11303906095692362830895FC0162830895F8944B
S10503A0FFCF89
S11303A24C4541524E20494E204445505448000089
S9030000FC
