:100000000C942A000C943C000C943C000C943C0092
:100010000C943C000C943C000C943C000C943C0070
:100020000C943C000C943C000C942D010C940601A3
:100030000C943C000C943C000C943C000C943C0050
:100040000C943C000C943C000C943C000C943C0040
:100050000C943C0011241FBECFE5D8E0DEBFCDBF1D
:1000600020E0A0E6B0E001C01D92AC36B207E1F797
:100070000E9474000C947C010C94000088B3877F6C
:1000800088BB92B381E0892782BB089592B381E057
:10009000892782BB0895CF93DF93CDB7DEB728972A
:1000A0000FB6F894DEBF0FBECDBF182F41E061E060
:1000B00080E390E00E947A0088E4898380E38B8368
:1000C00084E08A8383E08C8386E490E09E838D8342
:1000D0008EE390E098878F83CE0101960E94860080
:1000E000812F0E94D600FFCF8CE30E944B0080E05E
:1000F00090E00895FC01413021F48181682B6183F7
:100100000895918160956923618308951F93CF932A
:10011000DF93EC0188E0FE01A4E6B0E001900D92CF
:100120008A95E1F788818F3F11F0182F01C010E008
:100130009A819F3F61F0903111F48F3F31F441E09B
:1001400068E086E390E00E947A008A81182B187F8D
:100150008981883F59F08650823030F440E061E078
:1001600086E390E00E947A008981182B8B818C3F76
:1001700041F08FB780688FBF99B78B81892B89BF7A
:1001800006C08FB78F778FBF89B78C7F89BF8C816F
:100190009D81E0E6F0E0918380838E819F8193834F
:1001A000828313BFDF91CF911F9108959FEF980F26
:1001B000943658F590916400983059F42FEF829F4F
:1001C000C001112468EC70E00E94540160956CBF7E
:1001D00008959834D1F490916600903251F42FEF45
:1001E000829FC001112464E670E00E9454016CBF3C
:1001F0000895903351F42FEF829FC001112464E6DB
:1002000070E00E94540160956CBF08951F920F9298
:100210000FB60F9211242F933F934F935F936F93D9
:100220007F938F939F93AF93BF93EF93FF93E0914F
:100230006000F09161000995FF91EF91BF91AF913E
:100240009F918F917F916F915F914F913F912F91EE
:100250000F900FBE0F901F9018951F920F920FB620
:100260000F9211242F933F934F935F936F937F933C
:100270008F939F93AF93BF93EF93FF93E0916200AF
:10028000F09163000995FF91EF91BF91AF919F911C
:100290008F917F916F915F914F913F912F910F902F
:1002A0000FBE0F901F90189597FB072E16F4009421
:1002B00007D077FD09D00E94680107FC05D03EF405
:1002C000909581959F4F0895709561957F4F089502
:1002D000AA1BBB1B51E107C0AA1FBB1FA617B7076C
:1002E00010F0A61BB70B881F991F5A95A9F7809588
:0C02F0009095BC01CD010895F894FFCF5B
:00000001FF
