:100000000C942A000C9447000C9447000C94470071
:100010000C9447000C9447000C9447000C94470044
:100020000C9447000C9447000C9447000C94470034
:100030000C9447000C9447000C9447000C94470024
:100040000C9447000C9447000C9447000C94470014
:100050000C94470011241FBECFE5D8E0DEBFCDBF12
:1000600010E0A0E6B0E0E8E6F4E002C005900D92F2
:10007000AE36B107D9F720E0AEE6B0E001C01D9280
:10008000AE36B207E1F70E9452010C9432020C9492
:10009000000041E068E086E390E00E94C10183ED4A
:1000A00090E30197F1F700C0000040E068E086E3CC
:1000B00090E00E94C101089542E068E086E390E08C
:1000C0000E948B0142E062E086E390E00E948B0197
:1000D00042E064E086E390E00E948B0141E060E151
:1000E00089E390E00E947F0141E060E289E390E0D3
:1000F0000E947F0141E060E489E390E00E947F017B
:1001000041E060E889E390E00E947F010895CF9389
:10011000C82F6BB36F70807F682B89E390E00E94DB
:10012000CD0140E062E086E390E00E94C10140E042
:1001300064E086E390E00E94C1010E9449006BB335
:1001400020E1C29FC00111246F70682B89E390E009
:100150000E94CD0140E062E086E390E00E94C10190
:1001600040E064E086E390E00E94C1010E94490003
:10017000CF91089581E00E9487000895CF93DF9387
:10018000C82FD62F813031F4603120F480E8860FFB
:100190000E948700C23031F4D03120F480EC8D0F02
:1001A0000E948700DF91CF91089587E893E101973E
:1001B000F1F700C000000E945C0085EA9EE0019714
:1001C000F1F700C000000E94BA0082E00E948700A0
:1001D00088E20E94870086E00E94870080E80E94F3
:1001E00087008FE00E9487000895CF93C82F41E0D9
:1001F00062E086E390E00E94C10140E064E086E3B3
:1002000090E00E94C1016BB36F708C2F807F682BD0
:1002100089E390E00E94CD010E9449006BB320E188
:10022000C29FC00111246F70682B89E390E00E9487
:10023000CD0141E062E086E390E00E94C10140E030
:1002400064E086E390E00E94C1010E944900CF91E2
:1002500008950F931F93CF93DF938C01C0E0D0E0FC
:1002600018C021960F5F1F4F0E94F500C031D105C5
:1002700029F460E082E00E94BE000BC0C032D105CC
:1002800041F40E94BA0060E081E00E94BE00C0E03C
:10029000D0E0F80180818111E4CFDF91CF911F91EF
:1002A0000F9108950E94D50083ED90E30197F1F737
:1002B00000C000000E94D00180E690E00E94290169
:1002C00081E40E94F70188E40E94F7018DE40E9416
:1002D000F70185E40E94F70184E40E94F70180E2BF
:1002E0000E94F70188E690E00E94FF010E940C0244
:1002F000EC010E94BA00CE010E942901F7CFFC0157
:10030000413021F48181682B61830895918160954A
:100310006923618308950F931F93CF93DF938C011B
:10032000D62FC42F8EEF840F823088F441E0C801AD
:100330000E947F01C33029F4F8018281D82BD28337
:100340001BC0F8018281D095D823D28315C04230DA
:1003500098F440E0C8010E947F01C11106C0F80175
:100360008281D095D823D28307C0F8018281D82B0F
:10037000D28380B78B7F80BFDF91CF911F910F9188
:100380000895FC01413021F48281682B6283089535
:1003900092816095692362830895FC0162830895C8
:1003A00085B385BB89B1836389B98AB188608AB90D
:1003B0008AB180618AB985B3816085BB85B382606B
:1003C00085BB8AB18B7F8AB985B38F7B85BB8BB1A7
:1003D0008D7F8BB985B38F7E85BB85B38F7D85BBC4
:1003E00085B3877F85BB85B3806885BB08955D9B9A
:1003F000FECF8CB908955F9BFECF8CB10895CF934B
:10040000DF93EC0103C00E94F701219688818111DE
:10041000FACFDF91CF9108951F93CF93DF93CDB79C
:10042000DEB7E2970FB6F894DEBF0FBECDBF80E017
:1004300010E00AC00E94FB01E1E0F0E0EC0FFD1FBC
:10044000E10FF11D80831F5F8132A1F7CE0101967C
:10045000E2960FB6F894DEBF0FBECDBFDF91CF910D
:080460001F910895F894FFCFED
:0E04680077656C636F6D650057686F3F00002D
:00000001FF
