:100000000C942A000C9434000C9434000C943400AA
:100010000C9434000C9434000C9434000C94340090
:100020000C9434000C9434000C9434000C94340080
:100030000C9434000C9434000C9434000C94340070
:100040000C9434000C9434000C9434000C94340060
:100050000C94340011241FBECFE5D8E0DEBFCDBF25
:100060000E9442000C945B000C94000087B3806BEC
:1000700087BB8DB181658DB908958FB9779BFECF10
:100080008FB108950E9436008FEF8ABBC0E0D0E0A8
:100090000EC08C2F0E943D008BBB2FEF84E39CE0B1
:1000A000215080409040E1F700C000002196CB3005
:0A00B000D1057CF3EBCFF894FFCFED
:00000001FF
