S01A000041544D45474133325F5350495F536C6176652E7372656351
S11300000C942A000C9434000C9434000C943400A6
S11300100C9434000C9434000C9434000C9434008C
S11300200C9434000C9434000C9434000C9434007C
S11300300C9434000C9434000C9434000C9434006C
S11300400C9434000C9434000C9434000C9434005C
S11300500C94340011241FBECFE5D8E0DEBFCDBF21
S11300600E9448000C9464000C94000087B38064E0
S113007087BB87B38F7487BB8DB180648DB90895B6
S1130080779BFECF8FB108958FB9779BFECF0895EC
S11300900E9436008FEF8ABBCFEF0E9440008BBBDB
S11300A02FEF89E698E1215080409040E1F700C0AD
S11300B0000088B3807E88BB8C2F0E94440088B3E4
S10F00C0807E88BBC150E9CFF894FFCFCC
S9030000FC
